:020000040800F2
:100000004005002045010008711600089D0E0008FB
:100010006D160008890900089D1E000800000000F8
:100020000000000000000000000000005918000857
:10003000610A000800000000211700088B19000861
:100040005F0100085F0100085F0100085F01000810
:100050005F0100085F0100085F0100085F01000800
:100060005F0100085F0100085F0100085F010008F0
:100070005F0100085F0100085F0100085F010008E0
:100080005F0100085F0100085F0100085F010008D0
:100090005F0100085F0100085F0100085F010008C0
:1000A0005F0100085F0100085F0100085F010008B0
:1000B000ED1900085F010008D91A00085F01000867
:1000C0005F0100085F0100085F0100085F01000890
:1000D0005F0100085F0100085F0100085F01000880
:1000E0005F0100085F0100085F0100085F01000870
:1000F0005F0100085F0100085F0100085F01000860
:100100005F0100085F0100085F0100085F0100084F
:100110005F0100085F0100085F0100085F0100083F
:100120005F0100085F0100085F0100085F0100082F
:10013000DFF80CD000F006FC0048004791380008BA
:10014000400500200648804706480047FEE7FEE7D6
:10015000FEE7FEE7FEE7FEE7FEE7FEE7FEE7FEE777
:100160008D19000831010008F0B480EA0102D40FB3
:100170004200B2EB410F02D20246084611464A0045
:1001800042D0C30DDDB2C1F3C752AD1A202D35DA0E
:10019000C1F3160141F4000204B15242C5F1200638
:1001A00002FA06F12A411044B3EBD05F23D0C4B168
:1001B000012DA0EBC35009DCF0BC4FF0004202EA75
:1001C000C352DBB200F5000000F019BB400000F1A3
:1001D000807000EBC350A0F1807040EAD1704900FC
:1001E00009E0490841EAC071A0EBC35000F50000E6
:1001F000400800EBC350F0BC00F0F8BA61420122A5
:1002000002EB4101001BF6E7F0BC704781F00041B2
:10021000AAE780F00040A7E780EA010210B502F0EB
:100220000043400022D04A001FD0010E01EB1261B2
:10023000C0F35600C2F3560240F4000042F400023C
:10024000A0FB022000047F39140400D0401C50EAB7
:10025000124001D44000491EC2B20C0604EBD0107B
:10026000401C4008802A02D003E0002010BD20F08E
:100270000100002900DA0020184310BD30B480EAE4
:10028000010202F0004530F0004221F0004013D09E
:1002900090B1C30DD40DC2F31601C0F31600E41AD9
:1002A00041F4000140F400027D34914201D3641C0A
:1002B00000E04900002C02DA30BC002070474FF407
:1002C00000000023914201D3891A034340084FEAFA
:1002D0004101F7D151B1914202D14FF0004105E007
:1002E00002D24FF0010101E06FF0010103EBC450B5
:1002F000284430BC00F07ABA2DE9FE4F804681EAEE
:100300000300C00F0C46009021F0004123F000458F
:10031000B8EB0200A94105D24046214690461C4652
:100320000B46024623F00040104347D0270DC7F389
:100330000A00C3F30A510290401A019040286BDA78
:10034000C3F3130040F4801B0098924620B10023B1
:10035000D2EB030A63EB0B0B01985946C0F1400244
:10036000504600F022FA06460D4650465946019A7C
:1003700000F02AFA10EB08006141002487EA1152CC
:1003800084EAE7731A4340D0009A62B3019A012AC3
:100390004FEA075215DC001B61EB02014FF00042EF
:1003A00002EA0752CDE90042001C41F580113246B5
:1003B0002B4600F061FA03B0BDE8F08F40462146BD
:1003C000F9E7001B61EB0201001C41F580130018E6
:1003D0005B412018A2F5001747EB030140EAD570F6
:1003E000B6196D4111E06D084FEA360645EAC07551
:1003F0004FEA0752001B61EB0201001C41F580111E
:1004000049084FEA30000019514132462B4603B0EB
:10041000BDE8F04F00F021BA00980122400000230F
:10042000D0EB020263EBE073009821464FEAE074E0
:10043000B8EB000061EB0401E9E783F000435BE700
:1004400081F0004158E72DE9FE4F81EA030404F0F2
:10045000004421F0004100944FF0000B23F00043D2
:1004600050EA01045ED052EA03045BD0C3F30A549D
:10047000C1F30A552C44A4F2F3340194A0FB0254B6
:10048000C1F3130141F48011C3F3130343F4801348
:1004900001FB024400FB034E840A970A44EA81549C
:1004A00047EA8357A4FB076802958D0A05FB078579
:1004B0004FEA932C04FB0C542705029D4FEA065883
:1004C00047EA1637B5EB08056EEB070C870E920E60
:1004D00047EA811742EA8312A7FB0201B6EB0B0140
:1004E00064EB00042B0D43EA0C335E1844EB1C5004
:1004F000DA465146E7FB0201C5F313044FEA0B331A
:1005000043EA14534FEA0432019C43EA0603A4F180
:100510000C040294009CCDE900B400F0ADF903B0E6
:10052000BDE8F08F00200146F9E72DE9F04D81EAA2
:10053000030404F0004B21F0004514464FF0000A7C
:1005400023F0004150EA050220D054EA01021DD0F8
:10055000C5F30A570246C5F31303C1F31300C1F3F1
:100560000A5640F4801543F48013A7EB0608101BCD
:10057000D64608F2FD3873EB050002D308F10108F6
:1005800001E092185B41B8F1000F03DA0020014648
:10059000BDE8F08D00204FF48011064684460EE041
:1005A000171B73EB050705D3121B63EB050306430B
:1005B0004CEA010C49084FEA300092185B4150EABE
:1005C0000107EDD152EA030012D082EA040083EA67
:1005D0000501084305D0101BAB4106D201220023C0
:1005E00006E000224FF0004302E06FF001025310DA
:1005F0001AEB06004CEB085110EB0A0041EB0B0123
:10060000BDE8F04D00F029B9C10F80EAE070084460
:10061000CA079623002100F0F2B80EB540F233412C
:1006200002910021CDE900110A460B4600F024F9A1
:1006300003B000BD00F0004230F000400AD0C10D10
:1006400001F56071C0F3160042EA0151C20840078B
:1006500011437047002001467047000030B5041E6A
:1006600071F1000404DB4FF00044404264EB0101EF
:10067000141E73F1000405DB1C464FF00043524288
:1006800063EB04038B4208BF824230BD30B5041EC9
:1006900071F1000404DB4FF00044404264EB0101BF
:1006A000141E73F1000405DB1C464FF00043524258
:1006B00063EB0403994208BF904230BD01F0004350
:1006C00030B421F0004150EA010206D00A0DA2F533
:1006D0006072C1F31301002A02DC30BC00207047B5
:1006E000440F44EAC104C100E01830BC00EBC25022
:1006F00000F07CB8002801DBC0F10040002901DBDC
:10070000C1F1004181427047002801DBC0F1004087
:10071000002901DBC1F100418842704730B50B462A
:10072000014600202022012409E021FA02F59D4221
:1007300005D303FA02F5491B04FA02F52844151EF5
:10074000A2F10102F1DC30BD2DE9F05F0546002089
:1007500092469B4688460646814640241BE0284632
:1007600041464746224600F0FFF853465A46C01A13
:10077000914110D311461846224600F016F82D1A62
:1007800067EB01084F4622460120002100F00DF8DA
:1007900017EB00094E41201EA4F10104DFDC48469E
:1007A00031462A464346BDE8F09F202A04DB203A22
:1007B00000FA02F1002070479140C2F1200320FAB4
:1007C00003F3194390407047202A06DBCB17203AE9
:1007D00041FA02F043EAE07306E041FA02F3D04046
:1007E000C2F1200291400843194670470029A8BF72
:1007F0007047401C490008BF20F00100704710B44A
:10080000B0FA80FC00FA0CF050EA010404BF10BCFE
:10081000704749B1CCF1200421FA04F411FA0CF12B
:1008200018BF012121430843A3EB0C01CB1D4FEA64
:1008300000614FEA102042BF002010BC704700EB5F
:10084000C35010440029A4BF10BC7047401C49008D
:1008500008BF20F0010010BC704710B5141E73F1E2
:10086000000408DA401C41F1000192185B411A4370
:1008700001D120F0010010BD2DE9F04D92469B46BC
:1008800011B1B1FA81F202E0B0FA80F22032904662
:10089000FFF78BFF04460F4640EA0A0041EA0B01CE
:1008A00053465A46084313D0114653EA010019D063
:1008B000C8F14002504600F057F805460E46504633
:1008C00059464246FFF771FF084305D0012004E076
:1008D00020463946BDE8F08D0020054346EAE07623
:1008E0002C4337430A986305E40AA0EB0800002272
:1008F000FD0A44EA47540A3002D500200146E9E7E0
:10090000010510196941DDE9084500196941BDE893
:10091000F04DA2E7C1F30A52C1F3130140F2FF33D5
:1009200041F480119A4202DA00200146704740F2F9
:1009300033439A42A2F2334202DC524200F014B82E
:10094000FFF733BF064C074D06E0E06840F00103B7
:1009500094E8070098471034AC42F6D3FFF7ECFB5D
:100960009C740008BC740008202A04DB203A21FA99
:1009700002F00021704721FA02F3D040C2F12002B8
:10098000914008431946704700BFFEE72DE9F04744
:1009900081460024484600F064F80D490860084686
:1009A000006870B108460068FFF737FE07463A4610
:1009B0000B4608480849FFF7B8FD0546FFF77EFEDD
:1009C000044621462046FFF727FCBDE8F0870000DB
:1009D00050000020DBF97E6AB8A8AB412DE9F04752
:1009E0004FF00009C84629E00020FFF7CFFF04467A
:1009F0000020FFF7CBFF05460020FFF7C7FF0646A4
:100A000029462046FFF780FE02D227462C463D4667
:100A100029463046FFF778FE01D22F4607E02146EF
:100A20003046FFF771FE01D2374600E027463946CF
:100A30004846FFF799FB814608F10108B8F1040F19
:100A4000D2DB4FF081414846FFF718FC814603484E
:100A500001684846FFF7DAFBBDE8F0879C000020FC
:100A6000704770B5054635B1012D0FD0022D18D055
:100A7000032D2CD120E0002000F0C0F8C0F30B04BF
:100A8000012000F0BBF840EA044421E0022000F01D
:100A9000B5F8C0F30B04032000F0B0F840EA0444BA
:100AA00016E0042000F0AAF8C0F30B04052000F0C3
:100AB000A5F840EA04440BE0062000F09FF8C0F3DC
:100AC0000B04072000F09AF840EA044400E000BF5D
:100AD00000BF24F07044204670BD000030B58DB0DA
:100AE0007E2000F08BF80446414800F083FD002092
:100AF00000F086FD22463FA1684601F0D1F900F0E2
:100B000073FDC0888004050C284600F05DFD00F0F0
:100B10006BFDC0888004050C6946284600F03EFA4B
:100B200045F24940844261D1FB223421082000F083
:100B300009FFFB223421092000F004FFFB223421AD
:100B40000A2000F0FFFEFB2234210B2000F0FAFE09
:100B50001B220021102000F0F5FE1B220021112095
:100B600000F0F0FE1B220021122000F0EBFE1B2201
:100B70000021132000F0E6FE02222021142000F0C4
:100B8000E1FE02222021152000F0DCFE02222021BD
:100B9000162000F0D7FE02222021172000F0D2FEFE
:100BA000002278211E2000F0CDFE002278211F2097
:100BB00000F0C8FE00227821202000F0C3FE0022B1
:100BC0007821212000F0BEFE00221146192000F0FD
:100BD000B9FE0D22C2211B2000F0B4FE0122142117
:100BE0001A2000F0AFFE00200DB030BD0120FBE761
:100BF0004000002049443A253078000038B50446CA
:100C000002236A4621462A2002F0B4F99DF800002A
:100C100005029DF801000543284638BD51B1820008
:100C2000A2F1C042126842F001038200A2F1C04268
:100C3000136009E08200A2F1C0421268034B1A401F
:100C40008300A3F1C0431A6070470000FEFF0F004D
:100C5000D0E901121143C26811430269114342698C
:100C6000114382691143C2691143026A1143426A06
:100C70001143826A1143C26A1143026B1143026835
:100C80009200A2F1C0421160816808290BD101686D
:100C90008900A1F1C041096841F040020168890062
:100CA000A1F1C0410A60416B0968426B526841EA98
:100CB0000211426B926841EA0221426B928941EA39
:100CC0000241426B128A41EA0251426B127D41EAB3
:100CD0000261426B926911430268521C9200A2F1B8
:100CE000C0421160C16AB1F5804F1BD1816B0968A8
:100CF000826B526841EA0211826B926841EA0221DA
:100D0000826B128A41EA0251826B127D41EA0261D2
:100D1000826B9269114302689200A2F1C042C2F84C
:100D2000041107E06FF0704201688900A1F1C04131
:100D3000C1F8042170472DE9F04102460025002644
:100D4000002000230024002791F803C00CF00F05B9
:100D500091F803C00CF0100CBCF1000F03D091F817
:100D600002C04CEA050591F800C0BCF1000F31D07B
:100D7000146800202BE04FF0010C0CFA00F3B1F8DE
:100D800000C00CEA03069E4220D183004FF00F0CF6
:100D90000CFA03F7BC4305FA03FC4CEA040491F88F
:100DA00003C0BCF1280F06D14FF0010C0CFA00FC77
:100DB000C2F814C00AE091F803C0BCF1480F05D195
:100DC0004FF0010C0CFA00FCC2F810C0401C0828BF
:100DD000D1D31460B1F800C0BCF1FF0F34DD54680A
:100DE00000202EE000F1080C4FF0010808FA0CF387
:100DF000B1F800C00CEA03069E4221D183004FF0F7
:100E00000F0C0CFA03F7BC4305FA03FC4CEA04048C
:100E100091F803C0BCF1280F05D100F1080C08FAC5
:100E20000CF8C2F8148091F803C0BCF1480F07D148
:100E300000F1080C4FF0010808FA0CF8C2F8108015
:100E4000401C0828CED35460BDE8F0810246002043
:100E500093680B400BB1012000E000207047416116
:100E600070470161704700002DE9F04106460024FB
:100E7000002508E03046FFF789FD07462146FFF7C9
:100E800073F904466D1C142DF4DB03492046FFF76B
:100E9000F5F9BDE8F08100000000A04100BFFEE7C9
:100EA00010B504462CB14FF480510548FFF7D7FF29
:100EB00004E04FF480510248FFF7D3FF10BD00005B
:100EC000001401402DE9F04106460F4614461D4628
:100ED0002B4622463946304600F010FA04FB05F056
:100EE0000249098800F0BDF8BDE8F0813600002015
:100EF00001B502E00098401E009000980028F9D14A
:100F000008BD00002DE9F05F804689461646A6F12F
:100F100020001FFA80FA1E49096889881C4A126855
:100F2000D28801FB02F0C11700EB5171C1F3C70772
:100F30001748006800680AFB070B15480068C3885B
:100F40001348006882884946404600F0D7F92C20B3
:100F500000F030FB002416E0002510E01BF8040030
:100F600080212941084020B10A48008800F026FB72
:100F700003E00948008800F021FB681CC5B2082D79
:100F8000ECDB601CC4B2BC42E6DBBDE8F09F0000B5
:100F900030000020340000203600002070B50446E8
:100FA0000D46002624E03046134909688988084424
:100FB00012490988884205DD00260F480068C0886C
:100FC000204484B220460C490968C98808440C4969
:100FD0000988884201DD002600242A78214630460F
:100FE000FFF790FF6D1C044800688088304486B28B
:100FF00028780028D7D170BD3000002028000020BC
:101000002A00002000B597B00121080200F08AFBF9
:101010000120019004200390800607900020029098
:101020000490059006900890099008200A901020DE
:101030000B9000200C900E900F9010904FF4805069
:101040001190002012901390149001A81590169002
:1010500008A8FFF7FDFD01210020FFF7DFFD17B015
:1010600000BD70B504460D4600262C2000F0A2FA03
:1010700000BF03E0284600F0A1FA761CA642F9D38F
:1010800070BD000008B50121602000F06BFB03205B
:101090008DF8020018208DF803004FF48040ADF861
:1010A000000069465B48FFF746FE4FF40040ADF88C
:1010B000000069465748FFF73EFE0120ADF80000EA
:1010C00069465448FFF737FE0220ADF80000694634
:1010D0005048FFF730FE8020ADF8000069464E48CA
:1010E000FFF729FE4FF48070ADF8000069464A48CA
:1010F000FFF721FE4FF40070ADF800006946464846
:10110000FFF719FE4FF48060ADF8000069464248D1
:10111000FFF711FE4FF40060ADF8000069463E484D
:10112000FFF709FE4FF48050ADF8000069463A48D9
:10113000FFF701FE4FF40050ADF800006946364855
:10114000FFF7F9FD4FF48040ADF8000069463248E2
:10115000FFF7F1FD4FF40040ADF8000069462E485E
:10116000FFF7E9FD4FF48070ADF8000069462948AB
:10117000FFF7E1FD4FF40070ADF800006946254827
:10118000FFF7D9FD4FF48060ADF8000069462148B3
:10119000FFF7D1FD03208DF8020018208DF8030021
:1011A0001020ADF8000069461A48FFF7C4FD202062
:1011B000ADF8000069461748FFF7BDFD8020ADF887
:1011C000000069461348FFF7B6FD4FF40060ADF824
:1011D000000069460F48FFF7AEFD10208DF80300B0
:1011E00003208DF802000220ADF8000069460A488D
:1011F000FFF7A1FD10208DF8030003208DF80200F9
:101200004FF48050ADF8000069460248FFF793FDA7
:1012100008BD0000001401400018014010B504464C
:10122000072C00DD10BD28480470204604EBD07167
:101230004910A4EB410139B9F020244908804FF44A
:10124000A0702349088006E04FF4A0701F49088071
:10125000F0201F490880362000F0ACF9082141EA4F
:10126000441000F0ABF92A2000F0A4F9002000F0AF
:10127000A5F9002000F0A2F914490988491EC1F31C
:10128000072000F09BF911490978491EC8B200F007
:1012900095F92B2000F08EF9002000F08FF9002046
:1012A00000F08CF90A490988491EC1F3072000F0B3
:1012B00085F907490978491EC8B200F07FF92C204A
:1012C00000F078F900BFADE72C00002028000020D6
:1012D0002A00002010B5FFF7D5FEFFF793FE01208E
:1012E000FFF7DEFD00F052F900F038F80248007810
:1012F000FFF794FF10BD00002C0000202DE9F04105
:1013000004460D4616461F462A2000F053F92012C7
:1013100000F054F9E0B200F051F9A119491EC1F3EF
:101320000F2000F04BF9A119491EC8B200F046F990
:101330002B2000F03FF9281200F040F9E8B200F04D
:101340003DF9E919491EC1F30F2000F037F9E919F9
:10135000491EC8B200F032F9BDE8F08110B5CF20C7
:1013600000F028F9002000F029F9812000F026F98A
:10137000302000F023F9ED2000F01CF9642000F08B
:101380001DF9032000F01AF9122000F017F981204E
:1013900000F014F9E82000F00DF9852000F00EF9B6
:1013A000102000F00BF9782000F008F9CB2000F0B5
:1013B00001F9392000F002F92C2000F0FFF800209C
:1013C00000F0FCF8342000F0F9F8022000F0F6F804
:1013D000F72000F0EFF8202000F0F0F8EA2000F00D
:1013E000E9F8002000F0EAF8002000F0E7F8B1206A
:1013F00000F0E0F8002000F0E1F81B2000F0DEF83B
:10140000B62000F0D7F80A2000F0D8F8A22000F0AB
:10141000D5F8C02000F0CEF8352000F0CFF8C1207C
:1014200000F0C8F8112000F0C9F8C52000F0C2F89B
:10143000452000F0C3F8452000F0C0F8C72000F0B8
:10144000B9F8A22000F0BAF8F22000F0B3F80020BA
:1014500000F0B4F8262000F0ADF8012000F0AEF85E
:10146000E02000F0A7F80F2000F0A8F8262000F0F8
:10147000A5F8242000F0A2F80B2000F09FF80E2021
:1014800000F09CF8092000F099F8542000F096F83C
:10149000A82000F093F8462000F090F80C2000F00F
:1014A0008DF8172000F08AF8092000F087F80F2047
:1014B00000F084F8072000F081F8002000F07EF8AA
:1014C000E12000F077F8002000F078F8192000F013
:1014D00075F81B2000F072F8042000F06FF810205F
:1014E00000F06CF8072000F069F82A2000F066F898
:1014F000472000F063F8392000F060F8032000F086
:101500005DF8062000F05AF8062000F057F8302069
:1015100000F054F8382000F051F80F2000F04EF899
:10152000362000F047F8C82000F048F82A2000F0E4
:1015300041F8002000F042F8002000F03FF80020C1
:1015400000F03CF8EF2000F039F82B2000F032F8E2
:10155000002000F033F8002000F030F8012000F007
:101560002DF83F2000F02AF83A2000F023F855200B
:1015700000F024F8112000F01DF80348FFF7B8FC34
:10158000292000F017F810BDFCBF020010B50221A1
:101590000748FFF764FC40F6FF20FFF7A9FC022193
:1015A0000348FFF75EFC40F6FF20FFF7A1FC10BDEB
:1015B000001801404FF0C041088070470149088081
:1015C000704700000000026070B5044600F00CF89F
:1015D000C5882B460348028821460020FFF772FC8D
:1015E00070BD00002800002001480068704700001E
:1015F00030000020014908607047000030000020E2
:1016000001490880704700003400002008B501211E
:10161000082000F0A7F82020ADF8000010208DF879
:10162000030003208DF8020069460F48FFF783FB93
:101630000120ADF8000069460B48FFF77CFB022053
:10164000ADF8000069460848FFF775FB2021064801
:10165000FFF707FC01210448FFF703FC02210248C1
:10166000FFF7FFFB08BD0000000C014000BFFEE7D4
:10167000704708B54FF4C06000F048F825208DF899
:10168000000001208DF8010003208DF802000120E8
:101690008DF80300684600F001F808BD70B5002120
:1016A00000230F22C47804B3154C246804F4E064CA
:1016B000C4F5E064210AC1F10403CA40447804FA85
:1016C00003F184781440214309010E4C0678A1559A
:1016D000047804F01F050124AC4005786D11AD00BD
:1016E00005F1E025C5F8004109E0047804F01F0584
:1016F0000124AC40044D0678761145F8264070BDB3
:101700000CED00E000E400E080E100E0024901436C
:10171000024A1160704700000000FA050CED00E07D
:101720007047000029B1064A52690243044B5A61CE
:1017300004E0034A52698243014B5A61704700003A
:101740000010024029B1064AD2690243044BDA6113
:1017500004E0034AD2698243014BDA61704700001A
:101760000010024029B1064A92690243044B9A6173
:1017700004E0034A92698243014B9A61704700007A
:101780000010024030B500210022002400232D4D1E
:101790006D6805F00C0121B1042905D0082923D179
:1017A00005E0294D056022E0274D05601FE0254D2D
:1017B0006D6805F47012234D6D6805F480340225C0
:1017C00005EB92421CB9214D554305600BE01D4DC0
:1017D0006D6805F400351DB11C4D5543056002E0F0
:1017E000194D5543056002E0174D056000BF00BF6D
:1017F000144D6D6805F0F0010909154D6B5C056825
:10180000DD4045600F4D6D6805F4E061090A104D3B
:101810006B5C4568DD4085600A4D6D6805F460517C
:10182000C90A0B4D6B5C4568DD40C560054D6D68B0
:1018300005F44041890B074D6B5CC568B5FBF3F5BA
:10184000056130BD0010024000127A0000093D0021
:101850001400002024000020704710B500F002F8AA
:1018600010BD00000CB500200190009033480068C6
:1018700040F480303149086000BF3048006800F40F
:10188000003000900198401C0190009818B9019810
:10189000B0F5A06FF1D12948006800F4003010B114
:1018A0000120009001E0002000900098012843D121
:1018B0002348006840F0100021490860084600688D
:1018C00020F0030008600846006840F0020008604D
:1018D0001A48406819494860084640684860084608
:1018E000406840F4806048600846406820F47C10FE
:1018F00048600846406840F4E810486008460068C0
:1019000040F08070086000BF0C48006800F0007074
:101910000028F9D00948406820F0030007494860D2
:101920000846406840F00200486000BF0348406835
:1019300000F00C000828F9D10CBD00000010024096
:1019400000200240F8B504460E4615468DF80060AA
:101950008DF8015002236A4621462A2001F0D4FB6B
:10196000F8BD042808D14FF0E021096941F00401D5
:101970004FF0E022116107E04FF0E021096921F00A
:1019800004014FF0E02211617047704710B5134811
:10199000006840F00100114908600846406810499D
:1019A00008400E494860084600680E4908400B4947
:1019B00008600846006820F48020086008464068F7
:1019C00020F4FE0048604FF41F008860FFF745FFD9
:1019D0004FF000600449086010BD00000010024094
:1019E0000000FFF8FFFFF6FE08ED00E010B5012152
:1019F000880700F092F828B10121880700F07EF8EE
:101A000000F002F810BD000030B58DB0FEF7E6FF23
:101A100029490860084601682848006800F058FF16
:101A20002549086008460068244908602248006883
:101A30002349086023480078401C2249087001F0BF
:101A400009F820480078642829DB00201D49087027
:101A50001D48FFF7CFFD4FF4FC60FFF7D1FD16489E
:101A60000068FEF7E7FD044622460B4617A16846CC
:101A700000F016FAFFF7B8FDC08800EB4000400404
:101A8000040C2046FFF7A0FDFFF7AEFDC08800EB79
:101A900040004004040C69462046FFF77FFA0948DD
:101AA0000078322190FBF1F201FB120008B900F03E
:101AB00055FF0DB030BD0000A0000020A4000020A4
:101AC000980000209400002040000020494E303A49
:101AD000252E33662070460010B50121064800F01F
:101AE0001CF838B10121044800F008F801F06AFE42
:101AF00001F0D4FD10BD000000080040CA4302827E
:101B0000704721B1028842F00102028004E002889D
:101B10004FF6FE731A400280704730B5024600202F
:101B200000230024158A05EA0103958905EA0104CA
:101B300013B10CB1012000E0002030BD1AB183893F
:101B40000B43838102E083898B43838170470000CC
:101B5000002202881D4B98420ED01D4B98420BD09C
:101B6000B0F1804F08D01B4B984205D01A4B9842D9
:101B700002D01A4B984204D14FF68F731A404B880B
:101B80001A43174B984207D0164B984204D04FF691
:101B9000FF431A40CB881A4302808B8883850B88C9
:101BA00003850A4B98420BD0094B984208D00E4B44
:101BB000984205D00D4B984202D00D4B984201D16E
:101BC0000B7A03860123838270470000002C0140BA
:101BD000003401400004004000080040000C0040B8
:101BE000001000400014004000400140004401404B
:101BF000004801401FB501210846FFF7A3FD012160
:101C00008807FFF77BFF6320ADF8080040F60F6000
:101C1000ADF804000020ADF80A00ADF8060001A9F7
:101C20004FF08040FFF794FF012211469007FFF725
:101C300085FF01218807FFF764FF4FF4C060FFF7BD
:101C400065FD1C208DF8000001208DF801000220A8
:101C50008DF8020001208DF803006846FFF71EFD95
:101C60001FBD00001FB501210420FFF76BFD0121FE
:101C70001648FFF743FFC720ADF8080040F60F6095
:101C8000ADF804000020ADF80A00ADF8060001A987
:101C90000E48FFF75DFF012211460C48FFF74EFF8B
:101CA00001210A48FFF72DFF4FF4C060FFF72EFD1A
:101CB0001E208DF8000001208DF801008DF8020033
:101CC0008DF803006846FFF7E9FC1FBD00080040DF
:101CD00021B1828942F40052828104E082894DF66A
:101CE000FF731A408281704700B585B0012104203E
:101CF000FFF738FD01218803FFF734FD4FF4007032
:101D0000ADF8100018208DF8130003208DF8120094
:101D100004A91748FFF70FF84FF48060ADF81000E2
:101D200004208DF8130004A91148FFF704F84FF4BC
:101D3000E13000900020ADF80400ADF80600ADF8E9
:101D40000800ADF80C000C20ADF80A0069460948FF
:101D500000F038F8FFF78DFC012240F225510548CC
:101D600000F00AF801210348FFF7B2FF05B000BDFB
:101D70000008014000380140F0B503460024002669
:101D80000025002040F66A17B94200D100BF18466E
:101D9000C1F3421401F01F06012707FA06F5012CD2
:101DA00001D10C3004E0022C01D1103000E01430DD
:101DB0001AB107682F43076002E00768AF43076066
:101DC000F0BD00002DE9F04786B005460E46002420
:101DD000A24600BFA1460027B08900B100BF2F4630
:101DE0002C8A4CF6FF700440F08804432C82AC89A6
:101DF0004EF6F3100440B0883189084371890843D6
:101E00000443AC81AC8A4FF6FF400440B0890443E0
:101E1000AC8201A8FFF7B6FC1F48874202D1DDF86B
:101E200010A001E0DDF80CA0A88900F4004040B14A
:101E30000AEBCA0000EB0A1031684900B0FBF1F868
:101E400007E00AEBCA0000EB0A1031688900B0FB1A
:101E5000F1F86420B8FBF0F004012009642101FBD3
:101E60001089A88900F4004040B1322000EBC9007D
:101E7000B0FBF1F000F00700044308E0322000EB73
:101E800009106421B0FBF1F000F00F0004432C8135
:101E900006B0BDE8F08700000038014000BFFEE753
:101EA0000FB4084B10B504A902AA039800F0DEF89D
:101EB000044602A9002000F070FC204610BC5DF82A
:101EC00014FB00009B27000802E008C8121F08C18D
:101ED000002AFAD170477047002001E001C1121FAB
:101EE000002AFBD1704700002DE9FF5F82B000217E
:101EF000DDE90430020DDDF840B0034318D044F6AC
:101F00001050A2F2FF3242431514119801281FD03D
:101F1000A5EB0B00401C5FEA000A4FF000064E4F95
:101F2000DFF83891B046504615D5CAF1000413E0E9
:101F3000119801244AA3012801D16FEA0B010298EC
:101F4000119AC0E90031C0E9024206B0BDE8F09F35
:101F5000CBF10000DFE704460021404A491842EB7C
:101F60000450CDE9001012E0E00707D032463B46AE
:101F700040464946FEF767FA8046894632463B4668
:101F800010461946FEF75FFA06460F466410002C0D
:101F9000EAD1DDE90401DDE90023BAF1000F06DA38
:101FA000FEF751FA42464B46FEF74DFA05E0FEF7C2
:101FB000BCFA42464B46FEF7B8FA04460E460022EB
:101FC000284BFEF763FB03D84FF0FF30014607E0D4
:101FD0000022254B20463146FEF78EF9FEF79AFC8B
:101FE000102409E0002C0ADB0A220023FEF7ACFBD8
:101FF000039B30321A55641E50EA0102F2D1641C70
:10200000039AC4F111031444119A012A03D0012246
:1020100008430DD10AE0084304D000204FF0110B13
:10202000119072E7A3EB0B056D1E0DE05B4504DD1F
:102030004FF0000205F1010504E003DA4FF0000261
:10204000A5F10105002AECD002981199C0E90231EE
:10205000C0E9004579E70000000014400000F03FAF
:10206000300000000000F0430000E03F2DE9FF4F8A
:1020700095B09B468946064600250FE2252877D174
:1020800000242746F84A0121059400E0044316F88D
:10209000013F203B01FA03F01042F7D130782A28A3
:1020A00011D06FF02F033078A0F13002092A16D832
:1020B000059A44F0020402EB820203EB4202104450
:1020C000761C0590EFE759F8042B0592002A03DAF5
:1020D000504244F40054059044F00204761C3078D9
:1020E0002E2816D116F8010F44F004042A280DD02A
:1020F0006FF02F023078A0F13003092B09D807EBDD
:10210000870302EB4303C718761CF3E759F8047BF7
:10211000761C30786C280FD006DC4C2817D0682845
:102120000DD06A2814D104E0742810D07A280FD179
:102130000DE044F400140AE044F4801401E044F497
:1021400040147278824202D104F58014761C761C09
:10215000307866280BD013DC582877D009DC0028AB
:1021600075D04528F6D04628F4D047281AD19DE1ED
:1021700018E0632835D0642879D0652812D195E11C
:10218000702873D008DC6728F1D069286FD06E28DA
:102190000DD06F2806D1B5E073282CD0752875D0E6
:1021A000782874D05A46179990476D1C75E1C4F38E
:1021B0000250022809D003280DD0D9F800100428B5
:1021C0000DD00D6009F1040967E1D9F80010EA1794
:1021D000C1E90052F6E7D9F800100D80F2E70D7062
:1021E000F0E719F8041B8DF8001000208DF80100AD
:1021F000EA46012003E059F804AB4FF0FF306107D5
:102200004FF0000102D40DE008F101018846B94207
:102210000FDA8045F8DB1AF808100029F4D108E03D
:1022200008F1010188468142FADB1AF808100029FA
:10223000F6D105985B46A0EB080721463846179A69
:1022400000F094FA284400EB080507E04DE029E18E
:102250000DE01AF8010B5A4617999047B8F101089A
:10226000F7D25B4621463846179A13E142E00A222C
:102270000092C4F302524FF0000A022A08D059F823
:1022800004CB032A4FEAEC710AD00DE029E02AE0E2
:1022900009F1070121F00702F2E802C1914609E0C5
:1022A0000FFA8CFC4FEAEC71042A03D14FFA8CFC34
:1022B0004FEAEC71002907DA0A460021DCF1000C34
:1022C00061EB02012D2202E0220504D52B228DF8BC
:1022D0000420012203E0E20701D02022F7E7904624
:1022E00059E00A2102E010220DE010214FF0000A0F
:1022F00000910BE010224FF0000A44F0040408277C
:10230000009203E008224FF0000A0092C4F3025248
:10231000022A05D059F804CB0021032A08D009E08D
:1023200009F1070121F00702F2E802C1914605E038
:102330001FFA8CFC042A01D10CF0FF0C4FF00008AE
:10234000220728D5702806D0009B83F0100353EA9B
:102350000A0305D00EE040228DF80420012208E097
:102360005CEA010206D030228DF804208DF80500C9
:1023700002229046009B83F0080353EA0A030AD125
:102380005CEA010201D1620705D530228DF80420F4
:102390004FF001087F1E582804D034A003900EA8E7
:1023A00002900DE036A0F9E753466046009AFEF72A
:1023B000CBF984460398825C0298401E029002701A
:1023C0005CEA0100F0D1029806A9081A00F1200A7F
:1023D000600702D524F4803400E00127574502DD70
:1023E000A7EB0A0000E0002000EB0A01009005982E
:1023F0004144401A0590E00306D45B462146179AF3
:10240000059800F0B3F90544002706E001A85A46F4
:10241000C05D179990476D1C7F1C4745F6DBE003B4
:102420000CD55B462146179A059800F09FF90544A4
:1024300004E030205A46179990476D1C0099481EB9
:1024400000900029F5DC08E0029802995A460078CD
:10245000491C0291179990476D1CBAF10001AAF12D
:10246000010AF1DC65E10000092801003031323356
:1024700034353637383961626364656600000000C0
:1024800030313233343536373839414243444546AA
:102490000000000000F058F90544761C3078002850
:1024A0007FF4ECAD19B02846BDE8F08F620700D488
:1024B000062709F1070222F0070CFCE80223E14697
:1024C00003F000485FEA080C02D00FF2702C0DE018
:1024D0005FEA045C02D50FF2682C07E05FEAC47C77
:1024E00002D00FF2602C01E0AFF2700C4FF0FF3819
:1024F00023F00043CDF850C065280CD006DC4528F9
:1025000009D046281DD047283DD13DE0662818D087
:1025100067287ED138E00021112F01DB112000E077
:10252000781CCDE9000106A90EA8FFF7DDFCDDE966
:102530000F010E9A03910021009207F1010A049104
:102540004DE04FF000400097CDE9011006A90EA81C
:10255000FFF7CAFCDDE90F0203920E9B11990022DE
:10256000DDF80CA00093049211B9791C00EB010A6C
:10257000B7EB0A0004D4C0F1FF3007F1010A049060
:10258000AAEB0700019044E0012F00DA01270021A7
:10259000112F01DD112000E03846CDE9000106A928
:1025A0000EA8FFF7A1FCDDE90F010E9A03910021AF
:1025B00004910092BA4621070CD40399514500DAE0
:1025C0008A46BAF1010F05DD009AAAF10101515CBA
:1025D000302908D0B84202DA10F1040F06DA0121DE
:1025E000CDE9011015E0AAF10101E9E7002805DCB9
:1025F000049901440491AAEB000102E0411C5145F9
:1026000000DD8A460499401A401C01904FF00040BA
:102610000290200704D40198504501DBCDF80480D6
:1026200000208DF84F0002980DF14F07B0F1004FD8
:1026300025D02B200E9002984FF0020800280CDACB
:10264000404202902D200E9007E00A210298FEF7EA
:1026500065F83031029007F8011DB8F10001A8F1CA
:102660000108F2DC02980028EFD1791E0E9808705C
:10267000307800F0200040F0450007F8020D12A865
:10268000C01B00F107081498007800B1012000EB8E
:102690000A01019801EBE07105984144401A401E7F
:1026A0000590E00306D45B462146179A059800F092
:1026B0005DF805441498007818B15A461799904768
:1026C0006D1CE00324D55B462146179A059800F05F
:1026D0004DF805441CE00498002807DBDDE9030100
:1026E000884203DD0098405C179901E0179930207B
:1026F0005A469047049805F10105401C0490019842
:10270000401E019004D12E205A46179990476D1C07
:10271000BAF10001AAF1010ADDDC05E017F8010BAE
:102720005A46179990476D1CB8F10001A8F10108AD
:10273000F4DC5B462146179A0598ABE62D000000B5
:102740002B000000200000002DE9F0410446002588
:102750001E461746880404D405E039462020B047B9
:102760006D1C641EF9D52846BDE8F0812DE9F041C5
:10277000044600251E469046C80301D5302700E0D8
:102780002027880404D505E041463846B0476D1C33
:10279000641EF9D52846BDE8F0810A68531C0B6019
:1027A0001070704710B56FF00400FFF7DAF80A48B0
:1027B00000680A49B0FBF1F0094908700846007842
:1027C00000EB4001C1EBC0104FF6FF7101EAC00001
:1027D0000449088010BD00000000002000127A00AB
:1027E00090000020920000200146114A12884A43BE
:1027F0004FF0E0235A6100229A611A46126942F0B2
:1028000001021A6100BF4FF0E022106900F00102DE
:102810001AB100F48032002AF5D04FF0E02212699C
:1028200022F001024FF0E0231A6100229A61704702
:102830009200002030B58DB02148FEF7DBFE012468
:1028400009E0FEF7D1FEC088604385B22846FEF756
:10285000BBFE601CC4B20C2CF3DD4FF47840FEF7D5
:10286000CFFE184818A102686846FFF719FBFEF76B
:10287000BBFEC5882846FEF7A7FEFEF7B5FEC58855
:1028800069462846FEF78AFB1F20FEF7B9FE0F486F
:102890000DA102686846FFF703FBFEF7A5FEC0889E
:1028A0004004050C2846FEF78FFEFEF79DFEC0880B
:1028B0004004050C69462846FEF770FB0DB030BD9C
:1028C00040000020600000202573000078000020F8
:1028D0002DE9FC5F83460C462046FDF7ABFE07461C
:1028E0000C4A0D4BFDF7AFFD81468A465846FDF771
:1028F000A1FE0746074A094BFDF7A5FD4A46534688
:10290000CDE90001FDF7F8FC0546FDF7D7FEBDE86F
:10291000FC9F00009A9999999999E93F9999C93F23
:102920002DE9F04707460C4615464FF000082646AD
:1029300007E057F826104046FDF716FC8046701C4D
:10294000C6B2AE42F5DD291B481CFDF75DFE81468F
:1029500049464046FDF792FCBDE8F08710B58EB0C1
:102960003248007832490978884258D03048007897
:1029700048B9FEF739FEC08800EBC00084B220469B
:10298000FEF722FE4BE02B48007818B1294800786A
:10299000032820D10020FEF733FE25480078401E92
:1029A000254951F8202025A101A8FFF779FAFEF763
:1029B0001BFEC08800EBC00084B22046FEF704FE78
:1029C000FEF712FEC08800EBC00084B201A92046C9
:1029D000FEF7E4FA23E017480078012803D01548F1
:1029E000007805281BD10020FEF70AFE1048027867
:1029F00015A101A8FFF754FAFEF7F6FDC08800EB19
:102A0000C00084B22046FEF7DFFDFEF7EDFDC08872
:102A100000EBC00084B201A92046FEF7BFFA0448CB
:102A20000078024908700EB010BD0000950000202B
:102A30009600002059000020B000002054686973FF
:102A4000206973202573000054686973206973201E
:102A5000256400002DE9F0414FF00008FE480078A1
:102A600030B1012853D003287ED005287DD135E12F
:102A70004FF07E51F9480068FDF746FE0FD2F74847
:102A80000068FDF7D7FD0646F54AF64BFDF7E6FD73
:102A900005D2F5484078401CF349487036E0EF48CD
:102AA0000068FDF7C7FD0646ED4AEE4BFDF7EEFD6B
:102AB00010D2EA480068FDF7BDFD06464FF03332FC
:102AC000EA4BFDF7CBFD05D2E7488078401CE6498C
:102AD00088701BE0E1480068FDF7ACFD06464FF04A
:102AE0003332E24BFDF7D2FD0BD2E149DB480068FF
:102AF000FDF700FE05D2DC48C078401CDA49C870FA
:102B000004E0D9480078401CD749087080E14FF0B4
:102B10007E51D2480068FDF7F7FD0FD2CF4800681C
:102B2000FDF788FD0646D34AD34BFDF797FD05D246
:102B3000CD484078401CCC4948706FE0C7480068D9
:102B4000FDF778FD0646CB4ACB4BFDF79FFD13D230
:102B5000C2480068FDF76EFD06464FF06632C74B6F
:102B6000FDF77CFD08D201E059E050E1BE488078D5
:102B7000401CBD49887051E0B8480068FDF75AFD17
:102B800006464FF06632BD4BFDF780FD0FD2B348CD
:102B90000068FDF74FFD0646B14AB94BFDF75EFDF3
:102BA00005D2B148C078401CAF49C87036E0AB4888
:102BB0000068FDF73FFD0646A94AB14BFDF766FDEB
:102BC00010D2A6480068FDF735FD06464FF03332B7
:102BD000AC4BFDF743FD05D2A3480079401CA24948
:102BE00008711BE09D480068FDF724FD06464FF084
:102BF0003332A44BFDF74AFD0BD29D49974800683C
:102C0000FDF778FD05D298484079401C96494871F7
:102C100004E095480078401C93490870F8E04FF0B4
:102C20007E518E480068FDF76FFD10D20122002111
:102C30009548FFF775FE0646884801683046FDF75F
:102C400063FD04D288484078401C874948700122BF
:102C500000218D48FFF764FE064680480168304633
:102C6000FDF748FD10D2022201218748FFF758FEE8
:102C700006467A4801683046FDF746FD04D27A4898
:102C80008078401C78498870022201217E48FFF735
:102C900047FE0646714801683046FDF72BFD0AD213
:102CA00073496E480068FDF725FD04D26E48C07870
:102CB000401C6D49C8704FF07E5168480068FDF7B0
:102CC00019FD05D36A4965480068FDF71DFD04D26A
:102CD00065480078401C6449087099E04FF07E51C7
:102CE0005E480068FDF710FD10D201220021674800
:102CF000FFF716FE0646594801683046FDF704FD09
:102D000004D259484078401C57494870012200219C
:102D10005E48FFF705FE0646504801683046FDF75D
:102D2000E9FC10D2022201215848FFF7F9FD0646BE
:102D30004A4801683046FDF7E7FC04D24A488078EB
:102D4000401C49498870022201215048FFF7E8FDE4
:102D50000646424801683046FDF7CCFC10D20322FB
:102D600002214A48FFF7DCFD06463C480168304630
:102D7000FDF7CAFC04D23C48C078401C3A49C870F0
:102D8000032202214148FFF7CBFD06463348016884
:102D90003046FDF7AFFC10D2042203213B48FFF779
:102DA000BFFD06462D4801683046FDF7ADFC04D254
:102DB0002D480079401C2C49087104220321334816
:102DC000FFF7AEFD0646254801683046FDF792FC48
:102DD0000AD2274921480068FDF78CFC04D222481A
:102DE0004079401C204948714FF07E511B480068D3
:102DF000FDF780FC05D31E4918480068FDF784FCE8
:102E000004D219480078401C1749087000E000BF40
:102E100000BF1F480078142190FBF1F201FB120063
:102E2000D0BB002412E001250AE060190E49085CBD
:102E3000095D884202DD601900F0FF08681CC5B218
:102E4000C4F10600A842F0DC601CC4B2052CEADB29
:102E5000104880F8008020E05900002098000020F1
:102E60009A99999999990540A800002033330F4009
:102E70000000C040CDCCCCCCCCCC044066660A402F
:102E800099990D4033331140BC000020C800002048
:102E9000940000209600002008E0002404E00020B8
:102EA00003490855601CC4B2062CF8DBBDE8F0816C
:102EB000A80000200A2000BF411E081EFCD1704758
:102EC00008B501210820FEF74DFCC020ADF8000038
:102ED00010208DF8030003208DF802006946064893
:102EE000FDF729FF80210448FDF7BBFF4021024880
:102EF000FDF7B7FF08BD0000000C014070B50646A5
:102F000000241B48006820F07040194908600846FA
:102F1000006840F000400860002516E06006040EDE
:102F200040211348FDF79DFFFFF7C4FF80211048A3
:102F3000FDF78CFF08B1601CC4B240210C48FDF7BE
:102F40008EFFFFF7B7FF681CC5B2082DE6DB084807
:102F5000006820F07040064908600846006840F0AC
:102F600040500860304600F02DF8204670BD00004B
:102F7000000C01402DE9F04104460E4615461F465F
:102F800000F066F8204600F03BF8304600F038F8D4
:102F900000F078F800F05CF844F0010000F030F840
:102FA00004E00020FFF7AAFF28706D1C781EC0B255
:102FB000071EF6D10120FFF7A1FF287000F062F88C
:102FC000BDE8F08110B5044624B180210B48FDF71F
:102FD00048FF03E080210948FDF741FFFFF76AFF42
:102FE00040210648FDF73DFFFFF764FF40210348FD
:102FF000FDF735FFFFF75EFF10BD0000000C01403C
:1030000070B5044600251BE004F0800020B180214B
:103010000E48FDF726FF03E080210C48FDF71FFF57
:10302000FFF748FF40210948FDF71BFFFFF742FF6C
:1030300040210648FDF713FF6006040E681CC5B268
:10304000082DE1DB00F030F870BD0000000C0140FD
:1030500010B580210A48FDF704FF40210848FDF71C
:1030600000FFFFF727FF80210548FDF7F8FEFFF777
:1030700021FF40210248FDF7F2FEFFF71BFF10BDC4
:10308000000C014010B580210648FDF7E8FE402104
:103090000448FDF7E6FEFFF70DFF80210148FDF72C
:1030A000E0FE10BD000C014010B51648006820F08D
:1030B0007040144908600846006840F0004008600D
:1030C00040211048FDF7CDFEFFF7F4FE80210D48AA
:1030D000FDF7BCFE08B1012400E0002440210948AE
:1030E000FDF7BDFEFFF7E6FE0648006820F07040E1
:1030F000044908600846006840F0405008602046D7
:1031000010BD0000000C01402DE9F04105460E46BF
:1031100014461F46FFF79CFF2846FFF771FF304615
:10312000FFF76EFF03E02078FFF76AFF641C781E4C
:10313000C0B2071EF7D12078FFF762FFFFF7A2FFAA
:10314000BDE8F08110B58EB00020FDF78DFE13496B
:1031500008601348FEF74EFA40F21F50FEF750FA8F
:1031600010A101A8FEF79CFEFEF73EFAC08800EB16
:10317000400101EBC00084B22046FEF725FAFEF7BD
:1031800033FAC08800EB400101EBC00084B201A912
:103190002046FDF703FF0EB010BD00009C0000208C
:1031A000400000204F4646534554207265736574B5
:1031B0000000000010B58EB0FEF716FAC08800EBD4
:1031C000400101EBC00084B22046FEF7FDF9FEF796
:1031D0000BFAC08800EB40008004040C2046FEF788
:1031E000F3F94648007802281ED14548007809289E
:1031F00016DA4448FEF7FEF940F21F50FEF700FAD7
:1032000041A101A8FEF74CFEFEF7EEF9C08800EBE5
:10321000400101EBC00084B201A92046FDF7BEFECB
:1032200000203749087021E03448007804281DD177
:10323000334800780F2816DA3248FEF7DBF940F2FF
:103240001F50FEF7DDF930A101A8FEF729FEFEF7B9
:10325000CBF9C08800EB400101EBC00084B201A9AA
:103260002046FDF79BFE0020254908702348007882
:10327000401C2249087008460078062801DB00201F
:1032800008702048FEF7B6F94FF47840FEF7B8F919
:1032900023481A49097850F8212022A101A8FEF7F5
:1032A000FFFDFEF7A1F9C4882046FEF78DF9FEF771
:1032B0009BF9C48801A92046FDF770FE1F20FEF788
:1032C0009FF919480D49097850F8212015A101A846
:1032D000FEF7E6FDFEF788F9C0884004040C20469E
:1032E000FEF772F9FEF780F9C0884004040C01A9CA
:1032F0002046FDF753FE0EB010BD0000590000201F
:103300005700002040000020547261696E696E67AA
:10331000206E6F742066696E6973686564000000D2
:1033200060000020257300007800002010B58EB0EA
:1033300000203A4908703A480078032802D1022058
:103340003749087036480078052802D104203449EE
:1033500008703448FEF74EF94FF47840FEF750F904
:1033600031482F49097850F8212030A101A8FEF7F3
:1033700097FDFEF739F9C4882046FEF725F9FEF7D8
:1033800033F9C48801A92046FDF708FE1F20FEF787
:1033900037F927482249097850F8212023A101A8AC
:1033A000FEF77EFDFEF720F9C0884004040C20469D
:1033B000FEF70AF9FEF718F9C0884004040C01A9C9
:1033C0002046FDF7EBFD40F21F50FEF719F919A159
:1033D00001A8FEF765FDFEF707F9C08800EB400184
:1033E00001EBC00084B22046FEF7EEF8FEF7FCF8D1
:1033F000C08800EB40008004040C2046FEF7E4F88F
:10340000FEF7F2F8C08800EB400101EBC00084B287
:1034100001A92046FDF7C2FD0EB010BD57000020E7
:1034200059000020400000206000002025730000AB
:10343000780000205265747261696E696E670000E1
:1034400010B58EB085480078022878D1844800787D
:10345000092874DA834800688349814A127841F860
:1034600022007F480078401C7D4908707F48FEF7A5
:10347000C1F840F21F50FEF7C3F8794802787CA1EA
:1034800001A8FEF70DFDFEF7AFF8C08800EB400184
:1034900001EBC00084B22046FEF796F8FEF7A4F8D0
:1034A000C08800EB400101EBC00084B201A92046B6
:1034B000FDF774FD6A480078092840D102220021F6
:1034C0006948FFF72DFA6D49086005220321664817
:1034D000FFF726FA69494860082206216248FFF78B
:1034E0001FFA664988606148FEF784F840F21F5071
:1034F000FEF786F862A101A8FEF7D2FCFEF774F889
:10350000C08800EB400101EBC00084B22046FEF70A
:103510005BF8FEF769F8C08800EB40008004040CFB
:103520002046FEF751F8FEF75FF8C08800EB400137
:1035300001EBC00084B201A92046FDF72FFD4748EA
:10354000007804287ED1464800780F287ADA45486A
:1035500000685049424A127841F8220040480078F9
:10356000401C3F4908704148FEF744F840F21F50A4
:10357000FEF746F83A4802783DA101A8FEF790FC14
:10358000FEF732F8C08800EB400101EBC00084B2C6
:103590002046FEF719F8FEF727F8C08800EB400137
:1035A00001EBC00084B201A92046FDF7F7FC2C48CE
:1035B00000780F2850D1022200213648FFF7B0F9D9
:1035C00035490860052203213248FFF7A9F932493D
:1035D0004860082206212F48FFF7A2F92E4988608B
:1035E0000B2209212B48FFF79BF92B49C8600E22BB
:1035F0000C212848FFF794F9274908611B48FDF77B
:10360000F9FF40F21F50FDF7FBFF1DA101A8FEF7D7
:1036100047FCFDF7E9FFC08800EB400101EBC0006B
:1036200084B22046FDF7D0FFFDF7DEFFC08800EB37
:1036300040008004040C2046FDF7C6FFFDF7D4FFD0
:10364000C08800E008E000EB400101EBC00084B25C
:1036500001A92046FDF7A2FC0EB010BD59000020C4
:103660005700002098000020DC00002040000020CF
:10367000446174612564206765740000BC0000200B
:10368000547261696E696E672066696E69736865F8
:103690006400000000010020C800002010B523488D
:1036A000007888B10020214908702148007801285D
:1036B00002D0022806D102E0FFF77CFD03E0FFF70D
:1036C000BFFE00E000BF00BF1A48007888B10020AC
:1036D0001849087016480078012802D0022806D13F
:1036E00002E0FFF72FFD03E0FFF720FE00E000BF40
:1036F00000BF11480078042816D1104800780A212C
:1037000090FBF1F201FB120070B909480078012822
:1037100002D0022806D102E0FFF714FD03E0FFF714
:1037200005FE00E000BF00BF10BD000055000020F6
:1037300058000020560000205A00002054000020AD
:1037400070B504460D4629462046FDF77FFB01284B
:1037500000D170BD0020FCE708B501211420FEF760
:1037600001F80120ADF8000004208DF8030069463F
:103770000548FDF7E0FA4FF40050ADF80000694647
:103780000248FDF7D8FA08BD0008014000100140CA
:1037900010B5002401210948FFF7D2FF012801D10B
:1037A000601CC4B24FF400510548FFF7C9FF01285F
:1037B00001D1A01CC4B2204610BD00000008014089
:1037C0000010014070B5FFF7E3FF04462B48007876
:1037D00030B1012809D0022812D003284BD12AE0A9
:1037E00014B101202549087046E02CB1022023497C
:1037F00008702348047002E00020204908703BE074
:1038000020480078401C1F4908703CB9002008700F
:1038100001201D49087000201849087019480078D7
:10382000642807DD03201549087001201749087036
:103830001348047020E013480078401C11490870B8
:10384000C4B9002008700D490870FDF7CDFEC0888E
:1038500000EB400101EBC00085B22846FDF7B4FE45
:10386000FDF7C2FEC08800EB40008004050C28462E
:10387000FDF7AAFE00E000BF00BF70BD5A000020A7
:103880005800002054000020550000205600002061
:1038900072B6FDF71FFDFEF727FAFDF7B7FEFEF73C
:1038A00081FFFEF7C7FFFFF70BFB4FF4FA70FEF73F
:1038B0009BFFFDF713F94FF4FA70FEF795FF002018
:1038C000FDF7D2FA05490860FFF746FFFEF792F9C7
:1038D000FEF7C8F962B600BFFEE700009C000020BA
:1038E00000000000000000000000000000000000D8
:1038F0000000001818181818180800081800000010
:103900000000003424242400000000000000000017
:103910000000000016247F2424247E2424000000BC
:10392000000000083E6848681C1612127C10100047
:1039300000000061D296740810162949C6000000E4
:10394000000000003C646438724ACE467F000000EC
:103950000000001818181800000000000000000007
:1039600000000004081810303030301010180C041B
:10397000000000201008080C0404040C0818102093
:10398000000000080A341C6A080000000000000063
:103990000000000000001818187F18181800000018
:1039A00000000000000000000000001818083000AF
:1039B0000000000000000000003C000000000000CB
:1039C00000000000000000000000001818000000C7
:1039D0000000000206040C0808101020204000001F
:1039E000000000003C6642475B7342663C000000FA
:1039F0000000000018784808080808087E00000049
:103A0000000000003C460606040810207E0000006E
:103A1000000000007C0606043C0202067C00000058
:103A2000000000000C1C14246444FF040400000087
:103A3000000000007E6060607E0202067C000000E4
:103A4000000000001E306048764242623C000000E8
:103A5000000000007E0206040C0818103000000070
:103A6000000000003C6242361C6642423C000000FE
:103A7000000000003C664242661A02047800000022
:103A800000000000000018180000001818000000D6
:103A9000000000000000181800000018180830008E
:103AA00000000000000004183060100C0600000048
:103AB00000000000000000007E007E00000000000A
:103AC000000000000000301804060C102000000068
:103AD000000000301C060606181000101000000040
:103AE0000000001C224141DDB5A5A5AF94C0403CBB
:103AF00000000000181C342426627E43C100000030
:103B0000000000007C4642467C4242427C000000AD
:103B1000000000001E204040404040603E00000089
:103B2000000000007C4642434343424678000000C8
:103B3000000000007E6060607E6060607E000000CB
:103B4000000000007E6060607E60606060000000D9
:103B5000000000001E604040CE4242623E00000075
:103B600000000000424242427E42424242000000C7
:103B7000000000007E181818181818187E000000A1
:103B8000000000007C0404040404044478000000E5
:103B9000000000004244485070584C44420000006D
:103BA0000000000020202020202020203E000000D7
:103BB000000000006266675F5B5BC1C1C10000007E
:103BC00000000000626272525A4A4E4646000000EF
:103BD000000000003C6243C3C3C343623C000000DA
:103BE000000000007C464242467840404000000011
:103BF000000000003C6243C3C3C343623C180F0093
:103C0000000000007C6662667C6C646662000000F6
:103C1000000000003E6040601C0602027C000000C4
:103C2000000000007F181818181818181800000055
:103C30000000000042424242424242623C00000018
:103C400000000000C14342622624341C180000001A
:103C500000000000C1C141495B5B76666600000060
:103C60000000000043663418181C2466C3000000DE
:103C700000000000C14266341C181818180000002B
:103C8000000000007E02040C181020607E0000007E
:103C90000000001C10101010101010101010101C3C
:103CA000000000402020101008080C04060200004C
:103CB0000000003C0C0C0C0C0C0C0C0C0C0C0C3C08
:103CC00000000000181C246200000000000000003A
:103CD000000000000000000000000000000000FFE5
:103CE00000000020100000000000000000000000A4
:103CF0000000000000003C06023E42467A00000040
:103D00000000004040405C62424242427C000000B1
:103D10000000000000001E20604060203E00000007
:103D20000000000202023E62424242663A00000087
:103D30000000000000003C62427E40603E00000047
:103D40000000000F1810107E10101010100000005E
:103D50000000000000003F66426658403E43423C7F
:103D60000000004040405C6242424242420000008B
:103D70000000001818007808080808087E000000F5
:103D8000000000040C007C040404040404040C7807
:103D9000000000606060626C78706864620000001F
:103DA0000000007808080808080808087E000000DD
:103DB000000000000000764B4B4B4B4B4B000000CB
:103DC0000000000000005C624242424242000000EB
:103DD0000000000000003C62424342623C000000E0
:103DE0000000000000005C62424242427C404040D1
:103DF0000000000000003E62424242663A020202B7
:103E00000000000000006E726360606060000000EF
:103E10000000000000003E20203C06027C00000064
:103E2000000000001010FE10101010101E00000006
:103E30000000000000004242424242663A00000098
:103E400000000000000043426624341818000000FF
:103E5000000000000000C1C15B5A5E666600000001
:103E600000000000000062261C181C2662000000F2
:103E700000000000000043426624341C181830E0A3
:103E80000000000000007E060C1810207E000000DC
:103E90000000000E18101010307010101010180EC6
:103EA00000000808080808080808080808080808A2
:103EB00000000030180808080C0E08080808183020
:103EC0000000000000000000714B06000000000030
:103ED00000000000000000000000000000000000E2
:103EE00000000000000000000000000000000000D2
:103EF00000000000000000000000000000000000C2
:103F0000000000000000000000000380018001802C
:103F1000018001800180018001800180018000001A
:103F2000000003C003C0000000000000000000000B
:103F3000000000000000000000000E700E700E7007
:103F40000C30000000000000000000000000000035
:103F50000000000000000000000000000000000061
:103F600000000000000000000000000006180638F5
:103F700006307FFE0C300C300C300C307FFE0C60B5
:103F80001C601860186000000000000000000000C5
:103F9000000000000000000000C000C00FF83CC896
:103FA00031C031803D801F8003F001F8031C030CF9
:103FB000031C3FF83FE0070006000000000000007F
:103FC00000000000000000001C007E0E630C63185F
:103FD00063307E6000C001800300077C0EE61CC6D3
:103FE00018C630C6607C0000000000000000000021
:103FF000000000000000000000000FE01CF038701E
:1040000038701C601FC00F003F8C71CC60EC607C6E
:1040100070383CFC1FCE00000000000000000000D3
:104020000000000000000000000003C001800180CB
:1040300001800000000000000000000000000000FF
:104040000000000000000000000000000000000070
:104050000000000000000000003000E001C001800E
:1040600003000700060006000E000E000E000E0002
:10407000060007000300038001C000E000300000DC
:1040800000000000000000000C000600038001801A
:1040900001C000E00060006000700070007000600F
:1040A000006000E000C00180038006000C000000FA
:1040B00000000000000000000000018011881DB811
:1040C00003C007E03DBC0188018000000000000043
:1040D00000000000000000000000000000000000E0
:1040E00000000000000000000000000000000000D0
:1040F000018001800180018001807FFE01800180BC
:1041000001800180000000000000000000000000AD
:10411000000000000000000000000000000000009F
:10412000000000000000000000000000000000008F
:1041300003C003C001C001C003801F0000000000D5
:10414000000000000000000000000000000000006F
:10415000000000000000000000000FF00000000060
:10416000000000000000000000000000000000004F
:10417000000000000000000000000000000000003F
:10418000000000000000000000000000000000002F
:1041900003C003C003C000000000000000000000D6
:1041A000000000000000000000000018003800308F
:1041B000006000E000C001C00180030003000600B1
:1041C0000E000C001C001800300000000000000071
:1041D0000000000000000000000001800FF01C380B
:1041E000381C301C707E70EE738E7E0E7C0C300C92
:1041F000381C1E780FE000000000000000000000E6
:1042000000000000000000000000000007C01FC008
:1042100039C001C001C001C001C001C001C001C05E
:1042200001C03FFC3FFC0000000000000000000057
:104230000000000000000000000003801FF018389C
:104240000038001800380038007001E003800700D3
:104250001C003FFC3FFC00000000000000000000CC
:104260000000000000000000000007801FF0003880
:1042700000380038003007E007F00038001C001C50
:10428000001820F83FE000000000000000000000DF
:1042900000000000000000000000000000F001B07D
:1042A000033007300E301C30383070307FFE7FFE18
:1042B000003000300030000000000000000000006E
:1042C0000000000000000000000000001FF81800BF
:1042D0001800180018001FE000F8001C001C001C4B
:1042E000003800F01FC000000000000000000000C7
:1042F00000000000000000000000000003F80F00B4
:104300001C001800300037F83C3C300C300C380CE6
:10431000381C1E380FF000000000000000000000F4
:104320000000000000000000000000003FFC001C36
:10433000001800380070006000E001C001800380B8
:10434000070006000E000000000000000000000052
:104350000000000000000000000003C01FF8381C2F
:10436000381C381C1C380FF007F01C78381C300C37
:10437000381C3C380FF00000000000000000000076
:104380000000000000000000000003801FF038382B
:10439000301C701C700C380C1FFC0FCC001C00185B
:1043A00000701FE01F8000000000000000000000FF
:1043B00000000000000000000000000000000000FD
:1043C000000003C003C001800000000000000000E6
:1043D00003C003C003C00000000000000000000094
:1043E00000000000000000000000000000000000CD
:1043F000000003C003C001800000000000000000B6
:1044000003C003C001C001C003800F000000000012
:10441000000000000000000000000000000000009C
:10442000003800F001C007001E0038000E000780B1
:1044300001C000700030000000000000000000001B
:10444000000000000000000000000000000000006C
:104450000000000000003FFC000000003FFC3FFCAB
:10446000000000000000000000000000000000004C
:10447000000000000000000000000000000000003C
:104480001C000F00038001E00078001C007001E0B8
:1044900003800E000C00000000000000000000007F
:1044A000000000000000000000000FC000F0003815
:1044B00000380038003803F00380030003000000D8
:1044C00000000780078000000000000000000000DE
:1044D000000000000000000000E007F80C0C1806C7
:1044E0003006700363F36633C673CC63CC62CC666C
:1044F000CCE6C7FCE0006000700038101FF0000040
:1045000000000000000000000000000003C007E001
:1045100006E00E700E700C301C3818183FFC3FFC83
:10452000700E600EE00700000000000000000000B8
:104530000000000000000000000000003FF03838DC
:10454000381C381C38383FF03FF8381C380C380C11
:10455000381C3FF83FE000000000000000000000B1
:104560000000000000000000000000E007FC1E0446
:1045700038003800300070007000700030003800E3
:104580003C001F9C07FC0000000000000000000031
:104590000000000000000000000000003FF0307844
:1045A000301C300C300E300E300E300E300E301C01
:1045B00030383FF03FC00000000000000000000065
:1045C0000000000000000000000000001FF81800BC
:1045D0001800180018001FF81FF81800180018001D
:1045E00018001FF81FF80000000000000000000085
:1045F0000000000000000000000000001FF818008C
:104600001800180018001FF81FF8180018001800EC
:104610001800180018000000000000000000000052
:104620000000000000000000000000F007FC1E0475
:10463000380030007000700070FC700C700C300C92
:10464000380C1F1C07FC00000000000000000000E8
:10465000000000000000000000000000300C300CE2
:10466000300C300C300C3FFC3FFC300C300C300C6C
:10467000300C300C300C0000000000000000000086
:104680000000000000000000000000003FFC01806E
:104690000180018001800180018001800180018012
:1046A00001803FFC3FFC0000000000000000000013
:1046B0000000000000000000000000001FF00030BB
:1046C000003000300030003000300030003000306A
:1046D00000701DE01FC0000000000000000000008E
:1046E000000000000000000000000000381C3870CE
:1046F00038E039C03B803F003F003B8039C038E0A4
:1047000038703838381C000000000000000000003D
:104710000000000000000000000000001C001C0061
:104720001C001C001C001C001C001C001C001C00A9
:104730001C001FFC1FFC0000000000000000000027
:10474000000000000000000000000000381C7C3C5D
:104750006C3E6E6E666E66CE63C66386618660066C
:104760006006600660060000000000000000000017
:104770000000000000000000000000003C0C3C0CA9
:104780003E0C360C330C338C318C31CC30EC306C2D
:10479000307C303C301C00000000000000000000B5
:1047A0000000000000000000000001C00FF81C3CE9
:1047B000381C700E700E60066006700E700E700C65
:1047C000381C1E780FE00000000000000000000010
:1047D0000000000000000000000000003FF0383C36
:1047E000381C380C380C381C38783FE0380038005A
:1047F0003800380038000000000000000000000011
:104800000000000000000000000001C00FF81C3C88
:10481000381C700E700E60066006700E700E700C04
:10482000381C1E780FE0018001C000FF003C000032
:104830000000000000000000000000003FF03838D9
:1048400038183818383838F03FC038E03870383801
:104850003838381C380E000000000000000000004E
:104860000000000000000000000001E00FF8380028
:10487000380038003C001F8003F00078001C001C4A
:10488000001C38783FE0000000000000000000003D
:104890000000000000000000000000007FFE01801A
:1048A0000180018001800180018001800180018000
:1048B0000180018001800000000000000000000075
:1048C000000000000000000000000000300C300C70
:1048D000300C300C300C300C300C300C300C300CF8
:1048E000381C1C380FF00000000000000000000021
:1048F000000000000000000000000000E006700E54
:10490000700E381C381C1C181C380C300E700660D9
:1049100007E003C003C0000000000000000000002A
:1049200000000000000000000000000060066006BB
:10493000600660066186638673C673CE766C366CDD
:104940003C3C3C3C381C0000000000000000000023
:10495000000000000000000000000000301C3818BB
:104960001C380E7007E003C003C007E00E701C384F
:104970001838381C700E0000000000000000000015
:10498000000000000000000000000000700E700C2D
:10499000381C1C380E70066007E003C001800180DF
:1049A0000180018001800000000000000000000084
:1049B0000000000000000000000000003FFC001CA0
:1049C0000038007000E001C0038007000E000C00FA
:1049D00018003FFC3FFC0000000000000000000049
:1049E000000000000000000007F007F006000600CD
:1049F0000600060006000600060006000600060087
:104A000006000600060006000600060007F000008B
:104A10000000000000000000000018001C000C0056
:104A20000600070003000380018001C000C0006091
:104A30000070003000380018000C0000000000007A
:104A400000000000000000000FE00FE000600060C8
:104A50000060006000600060006000600060006056
:104A60000060006000600060006000600FE0000017
:104A700000000000000000000000000003C006C0AD
:104A800006600C301818301C000000000000000008
:104A90000000000000000000000000000000000016
:104AA0000000000000000000000000000000000006
:104AB00000000000000000000000000000000000F6
:104AC000000000000000000000000000FFFF0000E8
:104AD000000000000000000000001E000380000035
:104AE00000000000000000000000000000000000C6
:104AF00000000000000000000000000000000000B6
:104B000000000000000000000000000000000000A5
:104B100000001FF01038001C001C0FFC1C1C381C6F
:104B2000381C3CFC1FDC00000000000000000000FE
:104B300000000000000000000000380038003800CD
:104B400038003BF83E1C3C1C380C380C380C380C38
:104B5000381C3C781FE0000000000000000000004E
:104B60000000000000000000000000000000000045
:104B7000000007F80E001C0038003800380038002C
:104B80001C000F1807F800000000000000000000E3
:104B900000000000000000000000001C001C001CC1
:104BA000001C0FFC1C1C381C301C301C301C301C22
:104BB000383C1CFC0F9C00000000000000000000BE
:104BC00000000000000000000000000000000000E5
:104BD00000000FF01C38381C300C3FFC3000300057
:104BE00038001E0C07FC0000000000000000000060
:104BF0000000000000000000003C01FE03800300F4
:104C0000030003007FFC7FFC03000300030003009C
:104C1000030003000300000000000000000000008B
:104C20000000000000000000000000000000000084
:104C300000000FFE1C383818381818381FF03B8059
:104C400030003FF01FFC300E700E381C1FF80000C3
:104C500000000000000000000000380038003800AC
:104C600038003BF83E383C1C381C381C381C381CBB
:104C7000381C381C381C0000000000000000000038
:104C80000000000000000000018003C003C000001D
:104C900000001FC001C001C001C001C001C001C0AF
:104CA00001C001C03FFC0000000000000000000047
:104CB00000000000000000000020007000700000F4
:104CC00000003FF000700070007000700070007015
:104CD0000070007000700070007020E03FC00000A5
:104CE000000000000000000000001800180018007C
:104CF0001800183C187018E01B801F001B8019E07A
:104D000018701838181C0000000000000000000097
:104D1000000000000000000000001FC001C001C032
:104D200001C001C001C001C001C001C001C001C07B
:104D300001C001C03FFC00000000000000000000B6
:104D40000000000000000000000000000000000063
:104D500000006F3C79EE71CE718E718E718E718E06
:104D6000718E718E718E0000000000000000000046
:104D70000000000000000000000000000000000033
:104D800000003BF83E383C1C381C381C381C381CD2
:104D9000381C381C381C0000000000000000000017
:104DA0000000000000000000000000000000000003
:104DB00000000FF01C3C381C700E700E700E700C52
:104DC000381C1E780FE0000000000000000000000A
:104DD00000000000000000000000000000000000D3
:104DE00000003BF83E1C3C1C380C380C380C380CCE
:104DF000381C3C783FE038003800380038000000AC
:104E000000000000000000000000000000000000A2
:104E100000000FFC1C1C381C301C301C301C301CCB
:104E2000383C1CFC0F9C001C001C001C001C0000DB
:104E30000000000000000000000000000000000072
:104E4000000019F81F1C1C0C180E18001800180080
:104E5000180018001800000000000000000000000A
:104E60000000000000000000000000000000000042
:104E700000000FF81C0018001E000FC001F80018F9
:104E8000001818381FF000000000000000000000AB
:104E90000000000000000000000000000600060006
:104EA00006007FFC0600060006000600060006005D
:104EB0000700078401FC0000000000000000000063
:104EC00000000000000000000000000000000000E2
:104ED0000000381C381C381C381C381C381C381C86
:104EE000383C1CFC0FDC000000000000000000004B
:104EF00000000000000000000000000000000000B2
:104F00000000700C381C38181C380C300E7006600D
:104F100007E003C003C00000000000000000000024
:104F20000000000000000000000000000000000081
:104F30000000600660066186738E73CC33CC366CDD
:104F4000366C3C3C3C3800000000000000000000D3
:104F50000000000000000000000000000000000051
:104F60000000381C1C380E7007E003C003C007E0C7
:104F70000E701C38381E0000000000000000000009
:104F80000000000000000000000000000000000021
:104F90000000700C381C38181C380C300E7006607D
:104FA00007E003C003C0038007000E007C00000080
:104FB00000000000000000000000000000000000F1
:104FC00000001FF80038007000E001C003800700F7
:104FD0000C001FFC3FFC000000000000000000006F
:104FE0000000000000000000007801F8038003804A
:104FF00003800380038003003F003E000300038022
:105000000380038003800380038001C000F8000058
:10501000000000000180018001800180018001808A
:105020000180018001800180018001800180018078
:1050300001800180018001800180018001800000E9
:1050400000000000000000001E001F80018001C061
:1050500001C001C001C000C000FC007C00C001C054
:1050600001C001C001C001C001C003801F000000D9
:105070000000000000000000000000000000000030
:105080000000000000001C003F0671CE60FC000024
:105090000000000000000000000000000000000010
:1050A0000000000000000000000000000000000000
:1050B00000000000000000000000000000000000F0
:1050C00000000000000000000000000000000000E0
:1050D00000000000000000000000000000000000D0
:1050E00000000000000000000000000000000000C0
:1050F00000000000000000000000000000000000B0
:10510000000000000000000000000000000000009F
:105110000000003C00003C00003C00003C00003C63
:1051200000003C00003C00003C00003C00003C0053
:10513000003C00003C00003C00003C00000000007F
:105140000000003C00007E00003C00000000000069
:10515000000000000000000000000000000000004F
:10516000000000000000000000000000000000003F
:10517000000003C3E003C3E003C3C003C3C003C311
:10518000C003C3C003C1C000000000000000000055
:10519000000000000000000000000000000000000F
:1051A00000000000000000000000000000000000FF
:1051B00000000000000000000000000000000000EF
:1051C00000000000000000000000000000000000DF
:1051D000000000000000000001E0E001C0E001C0AC
:1051E000E001C0E03FFFFE3FFFFE03C1C00381C0FE
:1051F0000381C00381C07FFFFC7FFFFC0783800722
:105200000380070380070380070780000000000079
:10521000000000000000000000000000000000008E
:10522000000000000000000000000000000000007E
:105230000700000F00000E0001FFF007FFF01F0E37
:10524000001E1E001E1C001E1C000FDC0007FC00C0
:1052500000FF80003FF00038F800387800783C000C
:1052600070783071F83FFFE01FFF0000E00000E0C1
:105270000000E0000000000000000000000000004E
:10528000000000000000000000000000000000001E
:1052900000000F800F3FE01E78703C7070707070DF
:1052A000E07071C03FE3801FC700000E00001C00CB
:1052B00000780000F0F001E7FC03CF0E078E0E0F20
:1052C0000E0E1E0E0E3C07BC7003F800000000001E
:1052D00000000000000000000000000000000000CE
:1052E00000000000000000000000000000000000BE
:1052F000000000000001FF0007FF800F03C00F0344
:10530000C00F03C00F0780079F0003FE0003F000DB
:105310000FF83C3E7C3C3C1F3C780FF87807F87C4B
:1053200001F03E03F81FFFFC07FE1F000000000015
:10533000000000000000000000000000000000006D
:10534000000000000000000000000000000000005D
:105350000000003E00003C00003C00003C00003C1F
:1053600000003C00003C00000000000000000000C5
:10537000000000000000000000000000000000002D
:10538000000000000000000000000000000000001D
:10539000000000000000000000000000000000000D
:1053A00000000000000000000000000000000000FD
:1053B00000800001C0000780000F00001E00003CBC
:1053C0000000780000F00000E00001E00001E000D3
:1053D00001C00003C00003C00001C00001E00001E3
:1053E000E00000F00000F000007800003C00001E2B
:1053F00000000F000007C00001C000000000000016
:10540000000000000000000000000000000000009C
:10541000000003C00001E00000F000007C00003E3E
:1054200000001E00000F00000780000780000380BE
:105430000003C00003C00003C00003C000038000DD
:105440000780000780000F00001E00003C0000786D
:105450000000F00001E000038000000000000000F8
:10546000000000000000000000000000000000003C
:105470000000001C00001C000018000F18F007DBE3
:10548000E0007F0000FF0007DBE00E18700018004E
:10549000001C00001C0000000000000000000000D4
:1054A00000000000000000000000000000000000FC
:1054B00000000000000000000000000000000000EC
:1054C00000000000000000000000000000000000DC
:1054D00000000000000000000000000000000000CC
:1054E00000003C00003C00003C00003C00003C0090
:1054F000003C003FFFFC3FFFFC003C00003C000084
:105500003C00003C00003C000000000000000000E7
:10551000000000000000000000000000000000008B
:10552000000000000000000000000000000000007B
:10553000000000000000000000000000000000006B
:10554000000000000000000000000000000000005B
:10555000000000000000000000000000000000004B
:105560007C00007E00007E00003E00001E00003C2B
:105570000000F80007E00004000000000000000048
:10558000000000000000000000000000000000001B
:10559000000000000000000000000000000000000B
:1055A00000000000000000000000000000000000FB
:1055B00000000003FFE003FFE00000000000000027
:1055C00000000000000000000000000000000000DB
:1055D00000000000000000000000000000000000CB
:1055E00000000000000000000000000000000000BB
:1055F00000000000000000000000000000000000AB
:10560000000000000000000000000000000000009A
:10561000000000000000000000000000000000008A
:105620007C0000FE0000FE00007E00000000000084
:10563000000000000000000000000000000000006A
:10564000000000000000000000000000000000005A
:1056500000000000780000F00000E00001E000031E
:10566000C0000380000780000F00000E00001E0035
:10567000003C0000380000700000F00000E0000175
:10568000C00003C0000780000700000F00001E00DC
:10569000001C0000000000000000000000000000EE
:1056A00000000000000000000000000000000000FA
:1056B000000000000000000001FFC007FFE00F0035
:1056C000F01E00781E003C3C00FC3C07FC3C1FBC6C
:1056D0003C7C1C3DF03C3FC03C3F003C1E00381E63
:1056E00000780F80F007FFE001FF8000000000005D
:1056F00000000000000000000000000000000000AA
:105700000000000000000000000000000000000099
:105710000000000000000000007E0003FE001FDE0D
:10572000000E1E00001E00001E00001E00001E00D5
:10573000001E00001E00001E00001E00001E0000D3
:105740001E00001E000FFFF80FFFF8000000000011
:105750000000000000000000000000000000000049
:105760000000000000000000000000000000000039
:10577000000000000000000003FF800FFFE00E01AA
:10578000F00000F00000F00000F00000F00001E088
:105790000003C0000F80003E00007C0001F0000309
:1057A000C0000F80001FFFFC1FFFFC000000000076
:1057B00000000000000000000000000000000000E9
:1057C00000000000000000000000000000000000D9
:1057D00000000000000000000FFF800FFFE000014C
:1057E000E00000F00000F00001E00003C001FF0055
:1057F00001FFC00003F0000078000078000078008E
:1058000000780001F00FFFC00FFF00000000000053
:105810000000000000000000000000000000000088
:105820000000000000000000000000000000000078
:105830000000000000000000000FC0001FC0003F7B
:10584000C0007BC000F3C001E3C003C3C00783C036
:105850000F03C01C03C03803C07FFFFE7FFFFE00A4
:1058600003C00003C00003C00003C000000000002C
:105870000000000000000000000000000000000028
:105880000000000000000000000000000000000018
:1058900000000000000000000FFFE00FFFE00F001D
:1058A000000F00000F00000F00000F00000FFF802E
:1058B0000FFFE00000F000007800007800007800A2
:1058C00000F00003E00FFFC00FFE0000000000002A
:1058D00000000000000000000000000000000000C8
:1058E00000000000000000000000000000000000B8
:1058F0000000000000000000003FF001FFF003E0A6
:10590000000780000F00001E00001E1F001FFFE0A8
:105910001FC1F81E00781E003C1E003C1E003C0FFC
:1059200000780F80F807FFE001FF80000000000012
:105930000000000000000000000000000000000067
:105940000000000000000000000000000000000057
:1059500000000000000000001FFFFC1FFFFC000013
:10596000780000F00000E00001E00003C0000780C4
:10597000000F00000F00001E00003C000078000037
:10598000F00001F00001E00003C000000000000092
:105990000000000000000000000000000000000007
:1059A00000000000000000000000000000000000F7
:1059B000000000000000000003FFE00FE3F00F0014
:1059C000781E00781E00780F00F007E3E001FF80EA
:1059D00001FF8007E7E00F00F81E00781E003C1E64
:1059E000007C1F00F80FFFF003FFC0000000000064
:1059F00000000000000000000000000000000000A7
:105A00000000000000000000000000000000000096
:105A1000000000000000000003FF800FC7E01E0030
:105A2000F01E00783C00783C00783C00381E00787E
:105A30000FEFF807FFB80000780000780000F000D2
:105A400001E0000FC00FFF000FF000000000000099
:105A50000000000000000000000000000000000046
:105A60000000000000000000000000000000000036
:105A70000000000000000000000000000000000026
:105A800000000000007E00007E00007E0000180084
:105A90000000000000000000000000000000000006
:105AA0003C00007E00007E00003E00000000000080
:105AB00000000000000000000000000000000000E6
:105AC00000000000000000000000000000000000D6
:105AD00000000000000000000000000000000000C6
